{
  "_format": "hh-sol-artifact-1",
  "contractName": "Orders",
  "sourceName": "contracts/order.sol",
  "abi": [
    {
      "inputs": [
        {
          "internalType": "uint256",
          "name": "productId",
          "type": "uint256"
        },
        {
          "internalType": "uint256",
          "name": "quantity",
          "type": "uint256"
        }
      ],
      "name": "AddOrder",
      "outputs": [
        {
          "internalType": "bool",
          "name": "",
          "type": "bool"
        }
      ],
      "stateMutability": "payable",
      "type": "function"
    },
    {
      "inputs": [
        {
          "internalType": "string",
          "name": "name",
          "type": "string"
        },
        {
          "internalType": "string",
          "name": "description",
          "type": "string"
        },
        {
          "internalType": "string",
          "name": "image",
          "type": "string"
        },
        {
          "internalType": "uint256",
          "name": "price",
          "type": "uint256"
        },
        {
          "internalType": "uint256",
          "name": "quantity",
          "type": "uint256"
        },
        {
          "internalType": "uint256",
          "name": "warrenty",
          "type": "uint256"
        }
      ],
      "name": "addProduct",
      "outputs": [
        {
          "internalType": "uint256",
          "name": "",
          "type": "uint256"
        }
      ],
      "stateMutability": "nonpayable",
      "type": "function"
    },
    {
      "inputs": [
        {
          "internalType": "address",
          "name": "user",
          "type": "address"
        }
      ],
      "name": "getOrders",
      "outputs": [
        {
          "components": [
            {
              "internalType": "uint256",
              "name": "orderId",
              "type": "uint256"
            },
            {
              "internalType": "uint256",
              "name": "timestamp",
              "type": "uint256"
            },
            {
              "internalType": "uint256",
              "name": "idx",
              "type": "uint256"
            },
            {
              "internalType": "uint256",
              "name": "productId",
              "type": "uint256"
            },
            {
              "internalType": "uint256",
              "name": "quantity",
              "type": "uint256"
            }
          ],
          "internalType": "struct Orders.order[]",
          "name": "",
          "type": "tuple[]"
        }
      ],
      "stateMutability": "view",
      "type": "function"
    },
    {
      "inputs": [
        {
          "internalType": "uint256",
          "name": "id",
          "type": "uint256"
        }
      ],
      "name": "getProductById",
      "outputs": [
        {
          "components": [
            {
              "internalType": "uint256",
              "name": "id",
              "type": "uint256"
            },
            {
              "internalType": "string",
              "name": "name",
              "type": "string"
            },
            {
              "internalType": "string",
              "name": "description",
              "type": "string"
            },
            {
              "internalType": "string",
              "name": "image",
              "type": "string"
            },
            {
              "internalType": "uint256",
              "name": "quantity",
              "type": "uint256"
            },
            {
              "internalType": "uint256",
              "name": "price",
              "type": "uint256"
            },
            {
              "internalType": "uint256",
              "name": "warrentyPeriod",
              "type": "uint256"
            }
          ],
          "internalType": "struct Products.Product",
          "name": "",
          "type": "tuple"
        }
      ],
      "stateMutability": "view",
      "type": "function"
    },
    {
      "inputs": [],
      "name": "getProducts",
      "outputs": [
        {
          "components": [
            {
              "internalType": "uint256",
              "name": "id",
              "type": "uint256"
            },
            {
              "internalType": "string",
              "name": "name",
              "type": "string"
            },
            {
              "internalType": "string",
              "name": "description",
              "type": "string"
            },
            {
              "internalType": "string",
              "name": "image",
              "type": "string"
            },
            {
              "internalType": "uint256",
              "name": "quantity",
              "type": "uint256"
            },
            {
              "internalType": "uint256",
              "name": "price",
              "type": "uint256"
            },
            {
              "internalType": "uint256",
              "name": "warrentyPeriod",
              "type": "uint256"
            }
          ],
          "internalType": "struct Products.Product[]",
          "name": "",
          "type": "tuple[]"
        }
      ],
      "stateMutability": "view",
      "type": "function"
    },
    {
      "inputs": [
        {
          "internalType": "string",
          "name": "inn",
          "type": "string"
        }
      ],
      "name": "test",
      "outputs": [
        {
          "internalType": "uint256",
          "name": "",
          "type": "uint256"
        }
      ],
      "stateMutability": "pure",
      "type": "function"
    }
  ],
  "bytecode": "0x608060405234801561001057600080fd5b50611879806100206000396000f3fe6080604052600436106100555760003560e01c8063093376fe1461005a5780630f367d2a146100975780633f70c2b4146100c7578063744e973314610104578063c29b2f2014610141578063f9fbd5541461016c575b600080fd5b34801561006657600080fd5b50610081600480360381019061007c9190610d08565b6101a9565b60405161008e9190610e65565b60405180910390f35b6100b160048036038101906100ac9190610eb3565b610279565b6040516100be9190610f0e565b60405180910390f35b3480156100d357600080fd5b506100ee60048036038101906100e99190610f29565b610489565b6040516100fb9190611099565b60405180910390f35b34801561011057600080fd5b5061012b600480360381019061012691906111f0565b6106e7565b60405161013891906112e0565b60405180910390f35b34801561014d57600080fd5b506101566108ac565b6040516101639190611467565b60405180910390f35b34801561017857600080fd5b50610193600480360381019061018e9190611489565b610ae9565b6040516101a091906112e0565b60405180910390f35b6060600160008373ffffffffffffffffffffffffffffffffffffffff1673ffffffffffffffffffffffffffffffffffffffff168152602001908152602001600020805480602002602001604051908101604052809291908181526020016000905b8282101561026e57838290600052602060002090600502016040518060a0016040529081600082015481526020016001820154815260200160028201548152602001600382015481526020016004820154815250508152602001906001019061020a565b505050509050919050565b60008061028584610489565b905060003390506000848360a0015161029e9190611501565b9050803373ffffffffffffffffffffffffffffffffffffffff1631116102f9576040517f08c379a00000000000000000000000000000000000000000000000000000000081526004016102f0906115b8565b60405180910390fd5b670de0b6b3a76400008161030d9190611501565b341461034e576040517f08c379a000000000000000000000000000000000000000000000000000000000815260040161034590611624565b60405180910390fd5b600160008373ffffffffffffffffffffffffffffffffffffffff1673ffffffffffffffffffffffffffffffffffffffff1681526020019081526020016000206040518060a00160405280426040516020016103a99190611665565b6040516020818303038152906040528051906020012060001c8152602001428152602001600160008673ffffffffffffffffffffffffffffffffffffffff1673ffffffffffffffffffffffffffffffffffffffff168152602001908152602001600020805490508152602001888152602001878152509080600181540180825580915050600190039060005260206000209060050201600090919091909150600082015181600001556020820151816001015560408201518160020155606082015181600301556080820151816004015550506001935050505092915050565b610491610bb6565b60008210156104d5576040517f08c379a00000000000000000000000000000000000000000000000000000000081526004016104cc906116cc565b60405180910390fd5b600082815481106104e9576104e86116ec565b5b90600052602060002090600702016040518060e00160405290816000820154815260200160018201805461051c9061174a565b80601f01602080910402602001604051908101604052809291908181526020018280546105489061174a565b80156105955780601f1061056a57610100808354040283529160200191610595565b820191906000526020600020905b81548152906001019060200180831161057857829003601f168201915b505050505081526020016002820180546105ae9061174a565b80601f01602080910402602001604051908101604052809291908181526020018280546105da9061174a565b80156106275780601f106105fc57610100808354040283529160200191610627565b820191906000526020600020905b81548152906001019060200180831161060a57829003601f168201915b505050505081526020016003820180546106409061174a565b80601f016020809104026020016040519081016040528092919081815260200182805461066c9061174a565b80156106b95780601f1061068e576101008083540402835291602001916106b9565b820191906000526020600020905b81548152906001019060200180831161069c57829003601f168201915b5050505050815260200160048201548152602001600582015481526020016006820154815250509050919050565b600060606107296040518060400160405280600781526020017f7279756979697500000000000000000000000000000000000000000000000000815250610af4565b600088511415801561073d57506000865114155b80156107495750600085115b80156107555750600083115b610794576040517f08c379a000000000000000000000000000000000000000000000000000000000815260040161078b906117c8565b60405180910390fd5b6000875114156107b5576040518060200160405280600081525090506107b9565b8690505b60006040518060e0016040528060008054905081526020018a8152602001838152602001888152602001868152602001878152602001858152509080600181540180825580915050600190039060005260206000209060070201600090919091909150600082015181600001556020820151816001019080519060200190610842929190610bf3565b50604082015181600201908051906020019061085f929190610bf3565b50606082015181600301908051906020019061087c929190610bf3565b506080820151816004015560a0820151816005015560c08201518160060155505060c89150509695505050505050565b60606000805480602002602001604051908101604052809291908181526020016000905b82821015610ae057838290600052602060002090600702016040518060e00160405290816000820154815260200160018201805461090d9061174a565b80601f01602080910402602001604051908101604052809291908181526020018280546109399061174a565b80156109865780601f1061095b57610100808354040283529160200191610986565b820191906000526020600020905b81548152906001019060200180831161096957829003601f168201915b5050505050815260200160028201805461099f9061174a565b80601f01602080910402602001604051908101604052809291908181526020018280546109cb9061174a565b8015610a185780601f106109ed57610100808354040283529160200191610a18565b820191906000526020600020905b8154815290600101906020018083116109fb57829003601f168201915b50505050508152602001600382018054610a319061174a565b80601f0160208091040260200160405190810160405280929190818152602001828054610a5d9061174a565b8015610aaa5780601f10610a7f57610100808354040283529160200191610aaa565b820191906000526020600020905b815481529060010190602001808311610a8d57829003601f168201915b505050505081526020016004820154815260200160058201548152602001600682015481525050815260200190600101906108d0565b50505050905090565b600060c89050919050565b610b8a81604051602401610b089190611821565b6040516020818303038152906040527f41304fac000000000000000000000000000000000000000000000000000000007bffffffffffffffffffffffffffffffffffffffffffffffffffffffff19166020820180517bffffffffffffffffffffffffffffffffffffffffffffffffffffffff8381831617835250505050610b8d565b50565b60008151905060006a636f6e736f6c652e6c6f679050602083016000808483855afa5050505050565b6040518060e00160405280600081526020016060815260200160608152602001606081526020016000815260200160008152602001600081525090565b828054610bff9061174a565b90600052602060002090601f016020900481019282610c215760008555610c68565b82601f10610c3a57805160ff1916838001178555610c68565b82800160010185558215610c68579182015b82811115610c67578251825591602001919060010190610c4c565b5b509050610c759190610c79565b5090565b5b80821115610c92576000816000905550600101610c7a565b5090565b6000604051905090565b600080fd5b600080fd5b600073ffffffffffffffffffffffffffffffffffffffff82169050919050565b6000610cd582610caa565b9050919050565b610ce581610cca565b8114610cf057600080fd5b50565b600081359050610d0281610cdc565b92915050565b600060208284031215610d1e57610d1d610ca0565b5b6000610d2c84828501610cf3565b91505092915050565b600081519050919050565b600082825260208201905092915050565b6000819050602082019050919050565b6000819050919050565b610d7481610d61565b82525050565b60a082016000820151610d906000850182610d6b565b506020820151610da36020850182610d6b565b506040820151610db66040850182610d6b565b506060820151610dc96060850182610d6b565b506080820151610ddc6080850182610d6b565b50505050565b6000610dee8383610d7a565b60a08301905092915050565b6000602082019050919050565b6000610e1282610d35565b610e1c8185610d40565b9350610e2783610d51565b8060005b83811015610e58578151610e3f8882610de2565b9750610e4a83610dfa565b925050600181019050610e2b565b5085935050505092915050565b60006020820190508181036000830152610e7f8184610e07565b905092915050565b610e9081610d61565b8114610e9b57600080fd5b50565b600081359050610ead81610e87565b92915050565b60008060408385031215610eca57610ec9610ca0565b5b6000610ed885828601610e9e565b9250506020610ee985828601610e9e565b9150509250929050565b60008115159050919050565b610f0881610ef3565b82525050565b6000602082019050610f236000830184610eff565b92915050565b600060208284031215610f3f57610f3e610ca0565b5b6000610f4d84828501610e9e565b91505092915050565b600081519050919050565b600082825260208201905092915050565b60005b83811015610f90578082015181840152602081019050610f75565b83811115610f9f576000848401525b50505050565b6000601f19601f8301169050919050565b6000610fc182610f56565b610fcb8185610f61565b9350610fdb818560208601610f72565b610fe481610fa5565b840191505092915050565b600060e0830160008301516110076000860182610d6b565b506020830151848203602086015261101f8282610fb6565b915050604083015184820360408601526110398282610fb6565b915050606083015184820360608601526110538282610fb6565b91505060808301516110686080860182610d6b565b5060a083015161107b60a0860182610d6b565b5060c083015161108e60c0860182610d6b565b508091505092915050565b600060208201905081810360008301526110b38184610fef565b905092915050565b600080fd5b600080fd5b7f4e487b7100000000000000000000000000000000000000000000000000000000600052604160045260246000fd5b6110fd82610fa5565b810181811067ffffffffffffffff8211171561111c5761111b6110c5565b5b80604052505050565b600061112f610c96565b905061113b82826110f4565b919050565b600067ffffffffffffffff82111561115b5761115a6110c5565b5b61116482610fa5565b9050602081019050919050565b82818337600083830152505050565b600061119361118e84611140565b611125565b9050828152602081018484840111156111af576111ae6110c0565b5b6111ba848285611171565b509392505050565b600082601f8301126111d7576111d66110bb565b5b81356111e7848260208601611180565b91505092915050565b60008060008060008060c0878903121561120d5761120c610ca0565b5b600087013567ffffffffffffffff81111561122b5761122a610ca5565b5b61123789828a016111c2565b965050602087013567ffffffffffffffff81111561125857611257610ca5565b5b61126489828a016111c2565b955050604087013567ffffffffffffffff81111561128557611284610ca5565b5b61129189828a016111c2565b94505060606112a289828a01610e9e565b93505060806112b389828a01610e9e565b92505060a06112c489828a01610e9e565b9150509295509295509295565b6112da81610d61565b82525050565b60006020820190506112f560008301846112d1565b92915050565b600081519050919050565b600082825260208201905092915050565b6000819050602082019050919050565b600060e08301600083015161133f6000860182610d6b565b50602083015184820360208601526113578282610fb6565b915050604083015184820360408601526113718282610fb6565b9150506060830151848203606086015261138b8282610fb6565b91505060808301516113a06080860182610d6b565b5060a08301516113b360a0860182610d6b565b5060c08301516113c660c0860182610d6b565b508091505092915050565b60006113dd8383611327565b905092915050565b6000602082019050919050565b60006113fd826112fb565b6114078185611306565b93508360208202850161141985611317565b8060005b85811015611455578484038952815161143685826113d1565b9450611441836113e5565b925060208a0199505060018101905061141d565b50829750879550505050505092915050565b6000602082019050818103600083015261148181846113f2565b905092915050565b60006020828403121561149f5761149e610ca0565b5b600082013567ffffffffffffffff8111156114bd576114bc610ca5565b5b6114c9848285016111c2565b91505092915050565b7f4e487b7100000000000000000000000000000000000000000000000000000000600052601160045260246000fd5b600061150c82610d61565b915061151783610d61565b9250817fffffffffffffffffffffffffffffffffffffffffffffffffffffffffffffffff04831182151516156115505761154f6114d2565b5b828202905092915050565b600082825260208201905092915050565b7f6e6f7420656e6f7567682062616c000000000000000000000000000000000000600082015250565b60006115a2600e8361155b565b91506115ad8261156c565b602082019050919050565b600060208201905081810360008301526115d181611595565b9050919050565b7f7072696365206973206e6f7420657175616c0000000000000000000000000000600082015250565b600061160e60128361155b565b9150611619826115d8565b602082019050919050565b6000602082019050818103600083015261163d81611601565b9050919050565b6000819050919050565b61165f61165a82610d61565b611644565b82525050565b6000611671828461164e565b60208201915081905092915050565b7f3430340000000000000000000000000000000000000000000000000000000000600082015250565b60006116b660038361155b565b91506116c182611680565b602082019050919050565b600060208201905081810360008301526116e5816116a9565b9050919050565b7f4e487b7100000000000000000000000000000000000000000000000000000000600052603260045260246000fd5b7f4e487b7100000000000000000000000000000000000000000000000000000000600052602260045260246000fd5b6000600282049050600182168061176257607f821691505b602082108114156117765761177561171b565b5b50919050565b7f3430310000000000000000000000000000000000000000000000000000000000600082015250565b60006117b260038361155b565b91506117bd8261177c565b602082019050919050565b600060208201905081810360008301526117e1816117a5565b9050919050565b60006117f382610f56565b6117fd818561155b565b935061180d818560208601610f72565b61181681610fa5565b840191505092915050565b6000602082019050818103600083015261183b81846117e8565b90509291505056fea26469706673582212209e66658760dfe46c405ad9f6452a3e4ea9764120db1681dfbbe0fe1866f39f7264736f6c63430008090033",
  "linkReferences": {},
  "deployedLinkReferences": {}
}